{
  "contractName": "WedLock",
  "abi": [
    {
      "inputs": [],
      "stateMutability": "nonpayable",
      "type": "constructor"
    },
    {
      "inputs": [
        {
          "internalType": "address",
          "name": "sender",
          "type": "address"
        },
        {
          "internalType": "uint256",
          "name": "tokenId",
          "type": "uint256"
        },
        {
          "internalType": "address",
          "name": "owner",
          "type": "address"
        }
      ],
      "name": "ERC721IncorrectOwner",
      "type": "error"
    },
    {
      "inputs": [
        {
          "internalType": "address",
          "name": "operator",
          "type": "address"
        },
        {
          "internalType": "uint256",
          "name": "tokenId",
          "type": "uint256"
        }
      ],
      "name": "ERC721InsufficientApproval",
      "type": "error"
    },
    {
      "inputs": [
        {
          "internalType": "address",
          "name": "approver",
          "type": "address"
        }
      ],
      "name": "ERC721InvalidApprover",
      "type": "error"
    },
    {
      "inputs": [
        {
          "internalType": "address",
          "name": "operator",
          "type": "address"
        }
      ],
      "name": "ERC721InvalidOperator",
      "type": "error"
    },
    {
      "inputs": [
        {
          "internalType": "address",
          "name": "owner",
          "type": "address"
        }
      ],
      "name": "ERC721InvalidOwner",
      "type": "error"
    },
    {
      "inputs": [
        {
          "internalType": "address",
          "name": "receiver",
          "type": "address"
        }
      ],
      "name": "ERC721InvalidReceiver",
      "type": "error"
    },
    {
      "inputs": [
        {
          "internalType": "address",
          "name": "sender",
          "type": "address"
        }
      ],
      "name": "ERC721InvalidSender",
      "type": "error"
    },
    {
      "inputs": [
        {
          "internalType": "uint256",
          "name": "tokenId",
          "type": "uint256"
        }
      ],
      "name": "ERC721NonexistentToken",
      "type": "error"
    },
    {
      "inputs": [
        {
          "internalType": "address",
          "name": "owner",
          "type": "address"
        }
      ],
      "name": "OwnableInvalidOwner",
      "type": "error"
    },
    {
      "inputs": [
        {
          "internalType": "address",
          "name": "account",
          "type": "address"
        }
      ],
      "name": "OwnableUnauthorizedAccount",
      "type": "error"
    },
    {
      "anonymous": false,
      "inputs": [
        {
          "indexed": true,
          "internalType": "address",
          "name": "owner",
          "type": "address"
        },
        {
          "indexed": true,
          "internalType": "address",
          "name": "approved",
          "type": "address"
        },
        {
          "indexed": true,
          "internalType": "uint256",
          "name": "tokenId",
          "type": "uint256"
        }
      ],
      "name": "Approval",
      "type": "event"
    },
    {
      "anonymous": false,
      "inputs": [
        {
          "indexed": true,
          "internalType": "address",
          "name": "owner",
          "type": "address"
        },
        {
          "indexed": true,
          "internalType": "address",
          "name": "operator",
          "type": "address"
        },
        {
          "indexed": false,
          "internalType": "bool",
          "name": "approved",
          "type": "bool"
        }
      ],
      "name": "ApprovalForAll",
      "type": "event"
    },
    {
      "anonymous": false,
      "inputs": [
        {
          "indexed": false,
          "internalType": "uint256",
          "name": "_fromTokenId",
          "type": "uint256"
        },
        {
          "indexed": false,
          "internalType": "uint256",
          "name": "_toTokenId",
          "type": "uint256"
        }
      ],
      "name": "BatchMetadataUpdate",
      "type": "event"
    },
    {
      "anonymous": false,
      "inputs": [
        {
          "indexed": false,
          "internalType": "uint256",
          "name": "_tokenId",
          "type": "uint256"
        }
      ],
      "name": "MetadataUpdate",
      "type": "event"
    },
    {
      "anonymous": false,
      "inputs": [
        {
          "indexed": true,
          "internalType": "address",
          "name": "previousOwner",
          "type": "address"
        },
        {
          "indexed": true,
          "internalType": "address",
          "name": "newOwner",
          "type": "address"
        }
      ],
      "name": "OwnershipTransferred",
      "type": "event"
    },
    {
      "anonymous": false,
      "inputs": [
        {
          "indexed": true,
          "internalType": "address",
          "name": "from",
          "type": "address"
        },
        {
          "indexed": true,
          "internalType": "address",
          "name": "to",
          "type": "address"
        },
        {
          "indexed": true,
          "internalType": "uint256",
          "name": "tokenId",
          "type": "uint256"
        }
      ],
      "name": "Transfer",
      "type": "event"
    },
    {
      "inputs": [
        {
          "internalType": "address",
          "name": "to",
          "type": "address"
        },
        {
          "internalType": "uint256",
          "name": "tokenId",
          "type": "uint256"
        }
      ],
      "name": "approve",
      "outputs": [],
      "stateMutability": "nonpayable",
      "type": "function"
    },
    {
      "inputs": [
        {
          "internalType": "address",
          "name": "owner",
          "type": "address"
        }
      ],
      "name": "balanceOf",
      "outputs": [
        {
          "internalType": "uint256",
          "name": "",
          "type": "uint256"
        }
      ],
      "stateMutability": "view",
      "type": "function",
      "constant": true
    },
    {
      "inputs": [
        {
          "internalType": "address",
          "name": "",
          "type": "address"
        }
      ],
      "name": "certificateIssued",
      "outputs": [
        {
          "internalType": "bool",
          "name": "",
          "type": "bool"
        }
      ],
      "stateMutability": "view",
      "type": "function",
      "constant": true
    },
    {
      "inputs": [
        {
          "internalType": "uint256",
          "name": "tokenId",
          "type": "uint256"
        }
      ],
      "name": "getApproved",
      "outputs": [
        {
          "internalType": "address",
          "name": "",
          "type": "address"
        }
      ],
      "stateMutability": "view",
      "type": "function",
      "constant": true
    },
    {
      "inputs": [
        {
          "internalType": "address",
          "name": "owner",
          "type": "address"
        },
        {
          "internalType": "address",
          "name": "operator",
          "type": "address"
        }
      ],
      "name": "isApprovedForAll",
      "outputs": [
        {
          "internalType": "bool",
          "name": "",
          "type": "bool"
        }
      ],
      "stateMutability": "view",
      "type": "function",
      "constant": true
    },
    {
      "inputs": [],
      "name": "name",
      "outputs": [
        {
          "internalType": "string",
          "name": "",
          "type": "string"
        }
      ],
      "stateMutability": "view",
      "type": "function",
      "constant": true
    },
    {
      "inputs": [],
      "name": "owner",
      "outputs": [
        {
          "internalType": "address",
          "name": "",
          "type": "address"
        }
      ],
      "stateMutability": "view",
      "type": "function",
      "constant": true
    },
    {
      "inputs": [
        {
          "internalType": "uint256",
          "name": "tokenId",
          "type": "uint256"
        }
      ],
      "name": "ownerOf",
      "outputs": [
        {
          "internalType": "address",
          "name": "",
          "type": "address"
        }
      ],
      "stateMutability": "view",
      "type": "function",
      "constant": true
    },
    {
      "inputs": [],
      "name": "renounceOwnership",
      "outputs": [],
      "stateMutability": "nonpayable",
      "type": "function"
    },
    {
      "inputs": [
        {
          "internalType": "address",
          "name": "from",
          "type": "address"
        },
        {
          "internalType": "address",
          "name": "to",
          "type": "address"
        },
        {
          "internalType": "uint256",
          "name": "tokenId",
          "type": "uint256"
        }
      ],
      "name": "safeTransferFrom",
      "outputs": [],
      "stateMutability": "nonpayable",
      "type": "function"
    },
    {
      "inputs": [
        {
          "internalType": "address",
          "name": "from",
          "type": "address"
        },
        {
          "internalType": "address",
          "name": "to",
          "type": "address"
        },
        {
          "internalType": "uint256",
          "name": "tokenId",
          "type": "uint256"
        },
        {
          "internalType": "bytes",
          "name": "data",
          "type": "bytes"
        }
      ],
      "name": "safeTransferFrom",
      "outputs": [],
      "stateMutability": "nonpayable",
      "type": "function"
    },
    {
      "inputs": [
        {
          "internalType": "address",
          "name": "operator",
          "type": "address"
        },
        {
          "internalType": "bool",
          "name": "approved",
          "type": "bool"
        }
      ],
      "name": "setApprovalForAll",
      "outputs": [],
      "stateMutability": "nonpayable",
      "type": "function"
    },
    {
      "inputs": [
        {
          "internalType": "bytes4",
          "name": "interfaceId",
          "type": "bytes4"
        }
      ],
      "name": "supportsInterface",
      "outputs": [
        {
          "internalType": "bool",
          "name": "",
          "type": "bool"
        }
      ],
      "stateMutability": "view",
      "type": "function",
      "constant": true
    },
    {
      "inputs": [],
      "name": "symbol",
      "outputs": [
        {
          "internalType": "string",
          "name": "",
          "type": "string"
        }
      ],
      "stateMutability": "view",
      "type": "function",
      "constant": true
    },
    {
      "inputs": [
        {
          "internalType": "uint256",
          "name": "tokenId",
          "type": "uint256"
        }
      ],
      "name": "tokenURI",
      "outputs": [
        {
          "internalType": "string",
          "name": "",
          "type": "string"
        }
      ],
      "stateMutability": "view",
      "type": "function",
      "constant": true
    },
    {
      "inputs": [
        {
          "internalType": "address",
          "name": "from",
          "type": "address"
        },
        {
          "internalType": "address",
          "name": "to",
          "type": "address"
        },
        {
          "internalType": "uint256",
          "name": "tokenId",
          "type": "uint256"
        }
      ],
      "name": "transferFrom",
      "outputs": [],
      "stateMutability": "nonpayable",
      "type": "function"
    },
    {
      "inputs": [
        {
          "internalType": "address",
          "name": "newOwner",
          "type": "address"
        }
      ],
      "name": "transferOwnership",
      "outputs": [],
      "stateMutability": "nonpayable",
      "type": "function"
    },
    {
      "inputs": [
        {
          "internalType": "address",
          "name": "husbandAddress",
          "type": "address"
        },
        {
          "internalType": "address",
          "name": "wifeAddress",
          "type": "address"
        },
        {
          "internalType": "string",
          "name": "tokenURI",
          "type": "string"
        }
      ],
      "name": "awardCertificate",
      "outputs": [
        {
          "internalType": "uint256",
          "name": "",
          "type": "uint256"
        }
      ],
      "stateMutability": "nonpayable",
      "type": "function"
    },
    {
      "inputs": [
        {
          "internalType": "address",
          "name": "wifeAddress",
          "type": "address"
        }
      ],
      "name": "isCertificateIssued",
      "outputs": [
        {
          "internalType": "bool",
          "name": "",
          "type": "bool"
        }
      ],
      "stateMutability": "view",
      "type": "function",
      "constant": true
    },
    {
      "inputs": [
        {
          "internalType": "address",
          "name": "owner",
          "type": "address"
        },
        {
          "internalType": "uint256",
          "name": "index",
          "type": "uint256"
        }
      ],
      "name": "tokenOfOwnerByIndex",
      "outputs": [
        {
          "internalType": "uint256",
          "name": "",
          "type": "uint256"
        }
      ],
      "stateMutability": "view",
      "type": "function",
      "constant": true
    }
  ],
  "bytecode": "0x60806040523480156200001157600080fd5b50336040518060400160405280600781526020017f5765644c6f636b000000000000000000000000000000000000000000000000008152506040518060400160405280600a81526020017f5765644c6f636b4e465400000000000000000000000000000000000000000000815250816000908162000090919062000481565b508060019081620000a2919062000481565b505050600073ffffffffffffffffffffffffffffffffffffffff168173ffffffffffffffffffffffffffffffffffffffff16036200011a5760006040517f1e4fbdf7000000000000000000000000000000000000000000000000000000008152600401620001119190620005ad565b60405180910390fd5b62000134816200013b640100000000026401000000009004565b50620005ca565b6000600760009054906101000a900473ffffffffffffffffffffffffffffffffffffffff16905081600760006101000a81548173ffffffffffffffffffffffffffffffffffffffff021916908373ffffffffffffffffffffffffffffffffffffffff1602179055508173ffffffffffffffffffffffffffffffffffffffff168173ffffffffffffffffffffffffffffffffffffffff167f8be0079c531659141344cd1fd0a4f28419497f9722a3daafe3b4186f6b6457e060405160405180910390a35050565b600081519050919050565b7f4e487b7100000000000000000000000000000000000000000000000000000000600052604160045260246000fd5b7f4e487b7100000000000000000000000000000000000000000000000000000000600052602260045260246000fd5b600060028204905060018216806200028357607f821691505b6020821081036200029957620002986200023b565b5b50919050565b60008190508160005260206000209050919050565b60006020601f8301049050919050565b60008160020a8302905092915050565b600060088302620003067fffffffffffffffffffffffffffffffffffffffffffffffffffffffffffffffff82620002c4565b620003128683620002c4565b95508019841693508086168417925050509392505050565b6000819050919050565b6000819050919050565b60006200035f6200035962000353846200032a565b62000334565b6200032a565b9050919050565b6000819050919050565b6200037b836200033e565b620003936200038a8262000366565b848454620002d4565b825550505050565b600090565b620003aa6200039b565b620003b781848462000370565b505050565b5b81811015620003df57620003d3600082620003a0565b600181019050620003bd565b5050565b601f8211156200042e57620003f8816200029f565b6200040384620002b4565b8101602085101562000413578190505b6200042b6200042285620002b4565b830182620003bc565b50505b505050565b60008160020a8304905092915050565b6000620004566000198460080262000433565b1980831691505092915050565b600062000471838362000443565b9150826002028217905092915050565b6200048c8262000201565b67ffffffffffffffff811115620004a857620004a76200020c565b5b620004b482546200026a565b620004c1828285620003e3565b600060209050601f831160018114620004f95760008415620004e4578287015190505b620004f0858262000463565b86555062000560565b601f19841662000509866200029f565b60005b8281101562000533578489015182556001820191506020850194506020810190506200050c565b868310156200055357848901516200054f601f89168262000443565b8355505b6001600288020188555050505b505050505050565b600073ffffffffffffffffffffffffffffffffffffffff82169050919050565b6000620005958262000568565b9050919050565b620005a78162000588565b82525050565b6000602082019050620005c460008301846200059c565b92915050565b612b4080620005da6000396000f3fe608060405234801561001057600080fd5b5060043610610149576000357c010000000000000000000000000000000000000000000000000000000090048063715018a6116100ca578063a3672b681161008e578063a3672b6814610372578063b88d4fde146103a2578063c87b56dd146103be578063e985e9c5146103ee578063f2fde38b1461041e57610149565b8063715018a6146102e057806389a8756f146102ea5780638da5cb5b1461031a57806395d89b4114610338578063a22cb4651461035657610149565b806323b872dd1161011157806323b872dd146102185780632f745c591461023457806342842e0e146102645780636352211e1461028057806370a08231146102b057610149565b806301ffc9a71461014e57806304a474241461017e57806306fdde03146101ae578063081812fc146101cc578063095ea7b3146101fc575b600080fd5b61016860048036038101906101639190611ec9565b61043a565b6040516101759190611f11565b60405180910390f35b61019860048036038101906101939190611f8a565b6104b7565b6040516101a59190611f11565b60405180910390f35b6101b661050d565b6040516101c39190612047565b60405180910390f35b6101e660048036038101906101e1919061209f565b61059f565b6040516101f391906120db565b60405180910390f35b610216600480360381019061021191906120f6565b6105bb565b005b610232600480360381019061022d9190612136565b6105d1565b005b61024e600480360381019061024991906120f6565b6106d3565b60405161025b9190612198565b60405180910390f35b61027e60048036038101906102799190612136565b6107bd565b005b61029a6004803603810190610295919061209f565b6107dd565b6040516102a791906120db565b60405180910390f35b6102ca60048036038101906102c59190611f8a565b6107ef565b6040516102d79190612198565b60405180910390f35b6102e86108a9565b005b61030460048036038101906102ff9190611f8a565b6108bd565b6040516103119190611f11565b60405180910390f35b6103226108dd565b60405161032f91906120db565b60405180910390f35b610340610907565b60405161034d9190612047565b60405180910390f35b610370600480360381019061036b91906121df565b610999565b005b61038c60048036038101906103879190612354565b6109af565b6040516103999190612198565b60405180910390f35b6103bc60048036038101906103b79190612464565b610ae2565b005b6103d860048036038101906103d3919061209f565b610aff565b6040516103e59190612047565b60405180910390f35b610408600480360381019061040391906124e7565b610c12565b6040516104159190611f11565b60405180910390f35b61043860048036038101906104339190611f8a565b610ca6565b005b600063490649067c0100000000000000000000000000000000000000000000000000000000027bffffffffffffffffffffffffffffffffffffffffffffffffffffffff1916827bffffffffffffffffffffffffffffffffffffffffffffffffffffffff191614806104b057506104af82610d2c565b5b9050919050565b6000600960008373ffffffffffffffffffffffffffffffffffffffff1673ffffffffffffffffffffffffffffffffffffffff16815260200190815260200160002060009054906101000a900460ff169050919050565b60606000805461051c90612556565b80601f016020809104026020016040519081016040528092919081815260200182805461054890612556565b80156105955780601f1061056a57610100808354040283529160200191610595565b820191906000526020600020905b81548152906001019060200180831161057857829003601f168201915b5050505050905090565b60006105aa82610e0e565b506105b482610e96565b9050919050565b6105cd82826105c8610ed3565b610edb565b5050565b600073ffffffffffffffffffffffffffffffffffffffff168273ffffffffffffffffffffffffffffffffffffffff16036106435760006040517f64a0ae9200000000000000000000000000000000000000000000000000000000815260040161063a91906120db565b60405180910390fd5b60006106578383610652610ed3565b610eed565b90508373ffffffffffffffffffffffffffffffffffffffff168173ffffffffffffffffffffffffffffffffffffffff16146106cd578382826040517f64283d7b0000000000000000000000000000000000000000000000000000000081526004016106c493929190612587565b60405180910390fd5b50505050565b6000600a60008473ffffffffffffffffffffffffffffffffffffffff1673ffffffffffffffffffffffffffffffffffffffff168152602001908152602001600020805490508210610759576040517f08c379a00000000000000000000000000000000000000000000000000000000081526004016107509061260a565b60405180910390fd5b600a60008473ffffffffffffffffffffffffffffffffffffffff1673ffffffffffffffffffffffffffffffffffffffff16815260200190815260200160002082815481106107aa576107a961262a565b5b9060005260206000200154905092915050565b6107d883838360405180602001604052806000815250610ae2565b505050565b60006107e882610e0e565b9050919050565b60008073ffffffffffffffffffffffffffffffffffffffff168273ffffffffffffffffffffffffffffffffffffffff16036108625760006040517f89c62b6400000000000000000000000000000000000000000000000000000000815260040161085991906120db565b60405180910390fd5b600360008373ffffffffffffffffffffffffffffffffffffffff1673ffffffffffffffffffffffffffffffffffffffff168152602001908152602001600020549050919050565b6108b1611107565b6108bb600061118e565b565b60096020528060005260406000206000915054906101000a900460ff1681565b6000600760009054906101000a900473ffffffffffffffffffffffffffffffffffffffff16905090565b60606001805461091690612556565b80601f016020809104026020016040519081016040528092919081815260200182805461094290612556565b801561098f5780601f106109645761010080835404028352916020019161098f565b820191906000526020600020905b81548152906001019060200180831161097257829003601f168201915b5050505050905090565b6109ab6109a4610ed3565b8383611254565b5050565b60006109b9611107565b60008373ffffffffffffffffffffffffffffffffffffffff169050600960008573ffffffffffffffffffffffffffffffffffffffff1673ffffffffffffffffffffffffffffffffffffffff16815260200190815260200160002060009054906101000a900460ff1615610a61576040517f08c379a0000000000000000000000000000000000000000000000000000000008152600401610a58906126cb565b60405180910390fd5b610a6b85826113c3565b610a7581846114bc565b6001600960008673ffffffffffffffffffffffffffffffffffffffff1673ffffffffffffffffffffffffffffffffffffffff16815260200190815260200160002060006101000a81548160ff021916908315150217905550610ad78582611518565b809150509392505050565b610aed8484846105d1565b610af9848484846115dc565b50505050565b6060610b0a82610e0e565b506000600660008481526020019081526020016000208054610b2b90612556565b80601f0160208091040260200160405190810160405280929190818152602001828054610b5790612556565b8015610ba45780601f10610b7957610100808354040283529160200191610ba4565b820191906000526020600020905b815481529060010190602001808311610b8757829003601f168201915b505050505090506000610bb56117cb565b90506000815103610bca578192505050610c0d565b600082511115610bff578082604051602001610be7929190612727565b60405160208183030381529060405292505050610c0d565b610c08846117e2565b925050505b919050565b6000600560008473ffffffffffffffffffffffffffffffffffffffff1673ffffffffffffffffffffffffffffffffffffffff16815260200190815260200160002060008373ffffffffffffffffffffffffffffffffffffffff1673ffffffffffffffffffffffffffffffffffffffff16815260200190815260200160002060009054906101000a900460ff16905092915050565b610cae611107565b600073ffffffffffffffffffffffffffffffffffffffff168173ffffffffffffffffffffffffffffffffffffffff1603610d205760006040517f1e4fbdf7000000000000000000000000000000000000000000000000000000008152600401610d1791906120db565b60405180910390fd5b610d298161118e565b50565b60007f80ac58cd000000000000000000000000000000000000000000000000000000007bffffffffffffffffffffffffffffffffffffffffffffffffffffffff1916827bffffffffffffffffffffffffffffffffffffffffffffffffffffffff19161480610df757507f5b5e139f000000000000000000000000000000000000000000000000000000007bffffffffffffffffffffffffffffffffffffffffffffffffffffffff1916827bffffffffffffffffffffffffffffffffffffffffffffffffffffffff1916145b80610e075750610e068261184b565b5b9050919050565b600080610e1a836118b5565b9050600073ffffffffffffffffffffffffffffffffffffffff168173ffffffffffffffffffffffffffffffffffffffff1603610e8d57826040517f7e273289000000000000000000000000000000000000000000000000000000008152600401610e849190612198565b60405180910390fd5b80915050919050565b60006004600083815260200190815260200160002060009054906101000a900473ffffffffffffffffffffffffffffffffffffffff169050919050565b600033905090565b610ee883838360016118f2565b505050565b600080610ef9846118b5565b9050600073ffffffffffffffffffffffffffffffffffffffff168373ffffffffffffffffffffffffffffffffffffffff1614610f3b57610f3a818486611ab7565b5b600073ffffffffffffffffffffffffffffffffffffffff168173ffffffffffffffffffffffffffffffffffffffff1614610fcc57610f7d6000856000806118f2565b6001600360008373ffffffffffffffffffffffffffffffffffffffff1673ffffffffffffffffffffffffffffffffffffffff168152602001908152602001600020600082825403925050819055505b600073ffffffffffffffffffffffffffffffffffffffff168573ffffffffffffffffffffffffffffffffffffffff161461104f576001600360008773ffffffffffffffffffffffffffffffffffffffff1673ffffffffffffffffffffffffffffffffffffffff168152602001908152602001600020600082825401925050819055505b846002600086815260200190815260200160002060006101000a81548173ffffffffffffffffffffffffffffffffffffffff021916908373ffffffffffffffffffffffffffffffffffffffff160217905550838573ffffffffffffffffffffffffffffffffffffffff168273ffffffffffffffffffffffffffffffffffffffff167fddf252ad1be2c89b69c2b068fc378daa952ba7f163c4a11628f55a4df523b3ef60405160405180910390a4809150509392505050565b61110f610ed3565b73ffffffffffffffffffffffffffffffffffffffff1661112d6108dd565b73ffffffffffffffffffffffffffffffffffffffff161461118c57611150610ed3565b6040517f118cdaa700000000000000000000000000000000000000000000000000000000815260040161118391906120db565b60405180910390fd5b565b6000600760009054906101000a900473ffffffffffffffffffffffffffffffffffffffff16905081600760006101000a81548173ffffffffffffffffffffffffffffffffffffffff021916908373ffffffffffffffffffffffffffffffffffffffff1602179055508173ffffffffffffffffffffffffffffffffffffffff168173ffffffffffffffffffffffffffffffffffffffff167f8be0079c531659141344cd1fd0a4f28419497f9722a3daafe3b4186f6b6457e060405160405180910390a35050565b600073ffffffffffffffffffffffffffffffffffffffff168273ffffffffffffffffffffffffffffffffffffffff16036112c557816040517f5b08ba180000000000000000000000000000000000000000000000000000000081526004016112bc91906120db565b60405180910390fd5b80600560008573ffffffffffffffffffffffffffffffffffffffff1673ffffffffffffffffffffffffffffffffffffffff16815260200190815260200160002060008473ffffffffffffffffffffffffffffffffffffffff1673ffffffffffffffffffffffffffffffffffffffff16815260200190815260200160002060006101000a81548160ff0219169083151502179055508173ffffffffffffffffffffffffffffffffffffffff168373ffffffffffffffffffffffffffffffffffffffff167f17307eab39ab6107e8899845ad3d59bd9653f200f220920489ca2b5937696c31836040516113b69190611f11565b60405180910390a3505050565b600073ffffffffffffffffffffffffffffffffffffffff168273ffffffffffffffffffffffffffffffffffffffff16036114355760006040517f64a0ae9200000000000000000000000000000000000000000000000000000000815260040161142c91906120db565b60405180910390fd5b600061144383836000610eed565b9050600073ffffffffffffffffffffffffffffffffffffffff168173ffffffffffffffffffffffffffffffffffffffff16146114b75760006040517f73c6ac6e0000000000000000000000000000000000000000000000000000000081526004016114ae91906120db565b60405180910390fd5b505050565b806006600084815260200190815260200160002090816114dc91906128fd565b507ff8e1a15aba9398e019f0b49df1a4fde98ee17ae345cb5f6b5e2c27f5033e8ce78260405161150c9190612198565b60405180910390a15050565b600a60008373ffffffffffffffffffffffffffffffffffffffff1673ffffffffffffffffffffffffffffffffffffffff16815260200190815260200160002080549050600b600083815260200190815260200160002081905550600a60008373ffffffffffffffffffffffffffffffffffffffff1673ffffffffffffffffffffffffffffffffffffffff1681526020019081526020016000208190806001815401808255809150506001900390600052602060002001600090919091909150555050565b60008373ffffffffffffffffffffffffffffffffffffffff163b11156117c5578273ffffffffffffffffffffffffffffffffffffffff1663150b7a02611620610ed3565b8685856040518563ffffffff167c010000000000000000000000000000000000000000000000000000000002815260040161165e9493929190612a24565b6020604051808303816000875af192505050801561169a57506040513d601f19601f820116820180604052508101906116979190612a85565b60015b61171e573d80600081146116ca576040519150601f19603f3d011682016040523d82523d6000602084013e6116cf565b606091505b50600081510361171657836040517f64a0ae9200000000000000000000000000000000000000000000000000000000815260040161170d91906120db565b60405180910390fd5b805181602001fd5b63150b7a027c0100000000000000000000000000000000000000000000000000000000027bffffffffffffffffffffffffffffffffffffffffffffffffffffffff1916817bffffffffffffffffffffffffffffffffffffffffffffffffffffffff1916146117c357836040517f64a0ae920000000000000000000000000000000000000000000000000000000081526004016117ba91906120db565b60405180910390fd5b505b50505050565b606060405180602001604052806000815250905090565b60606117ed82610e0e565b5060006117f86117cb565b905060008151116118185760405180602001604052806000815250611843565b8061182284611b7b565b604051602001611833929190612727565b6040516020818303038152906040525b915050919050565b60007f01ffc9a7000000000000000000000000000000000000000000000000000000007bffffffffffffffffffffffffffffffffffffffffffffffffffffffff1916827bffffffffffffffffffffffffffffffffffffffffffffffffffffffff1916149050919050565b60006002600083815260200190815260200160002060009054906101000a900473ffffffffffffffffffffffffffffffffffffffff169050919050565b808061192b5750600073ffffffffffffffffffffffffffffffffffffffff168273ffffffffffffffffffffffffffffffffffffffff1614155b15611a5f57600061193b84610e0e565b9050600073ffffffffffffffffffffffffffffffffffffffff168373ffffffffffffffffffffffffffffffffffffffff16141580156119a657508273ffffffffffffffffffffffffffffffffffffffff168173ffffffffffffffffffffffffffffffffffffffff1614155b80156119b957506119b78184610c12565b155b156119fb57826040517fa9fbf51f0000000000000000000000000000000000000000000000000000000081526004016119f291906120db565b60405180910390fd5b8115611a5d57838573ffffffffffffffffffffffffffffffffffffffff168273ffffffffffffffffffffffffffffffffffffffff167f8c5be1e5ebec7d5bd14f71427d1e84f3dd0314c0f7b2291e5b200ac8c7c3b92560405160405180910390a45b505b836004600085815260200190815260200160002060006101000a81548173ffffffffffffffffffffffffffffffffffffffff021916908373ffffffffffffffffffffffffffffffffffffffff16021790555050505050565b611ac2838383611c49565b611b7657600073ffffffffffffffffffffffffffffffffffffffff168373ffffffffffffffffffffffffffffffffffffffff1603611b3757806040517f7e273289000000000000000000000000000000000000000000000000000000008152600401611b2e9190612198565b60405180910390fd5b81816040517f177e802f000000000000000000000000000000000000000000000000000000008152600401611b6d929190612ab2565b60405180910390fd5b505050565b606060006001611b8a84611d0a565b01905060008167ffffffffffffffff811115611ba957611ba8612229565b5b6040519080825280601f01601f191660200182016040528015611bdb5781602001600182028036833780820191505090505b509050600082602001820190505b600115611c3e578080600190039150507f3031323334353637383961626364656600000000000000000000000000000000600a86061a8153600a8581611c3257611c31612adb565b5b04945060008503611be9575b819350505050919050565b60008073ffffffffffffffffffffffffffffffffffffffff168373ffffffffffffffffffffffffffffffffffffffff1614158015611d0157508273ffffffffffffffffffffffffffffffffffffffff168473ffffffffffffffffffffffffffffffffffffffff161480611cc25750611cc18484610c12565b5b80611d0057508273ffffffffffffffffffffffffffffffffffffffff16611ce883610e96565b73ffffffffffffffffffffffffffffffffffffffff16145b5b90509392505050565b600080600090507a184f03e93ff9f4daa797ed6e38ed64bf6a1f0100000000000000008310611d68577a184f03e93ff9f4daa797ed6e38ed64bf6a1f0100000000000000008381611d5e57611d5d612adb565b5b0492506040810190505b6d04ee2d6d415b85acef81000000008310611da5576d04ee2d6d415b85acef81000000008381611d9b57611d9a612adb565b5b0492506020810190505b662386f26fc100008310611dd457662386f26fc100008381611dca57611dc9612adb565b5b0492506010810190505b6305f5e1008310611dfd576305f5e1008381611df357611df2612adb565b5b0492506008810190505b6127108310611e22576127108381611e1857611e17612adb565b5b0492506004810190505b60648310611e455760648381611e3b57611e3a612adb565b5b0492506002810190505b600a8310611e54576001810190505b80915050919050565b6000604051905090565b600080fd5b600080fd5b60007fffffffff0000000000000000000000000000000000000000000000000000000082169050919050565b611ea681611e71565b8114611eb157600080fd5b50565b600081359050611ec381611e9d565b92915050565b600060208284031215611edf57611ede611e67565b5b6000611eed84828501611eb4565b91505092915050565b60008115159050919050565b611f0b81611ef6565b82525050565b6000602082019050611f266000830184611f02565b92915050565b600073ffffffffffffffffffffffffffffffffffffffff82169050919050565b6000611f5782611f2c565b9050919050565b611f6781611f4c565b8114611f7257600080fd5b50565b600081359050611f8481611f5e565b92915050565b600060208284031215611fa057611f9f611e67565b5b6000611fae84828501611f75565b91505092915050565b600081519050919050565b600082825260208201905092915050565b60005b83811015611ff1578082015181840152602081019050611fd6565b60008484015250505050565b6000601f19601f8301169050919050565b600061201982611fb7565b6120238185611fc2565b9350612033818560208601611fd3565b61203c81611ffd565b840191505092915050565b60006020820190508181036000830152612061818461200e565b905092915050565b6000819050919050565b61207c81612069565b811461208757600080fd5b50565b60008135905061209981612073565b92915050565b6000602082840312156120b5576120b4611e67565b5b60006120c38482850161208a565b91505092915050565b6120d581611f4c565b82525050565b60006020820190506120f060008301846120cc565b92915050565b6000806040838503121561210d5761210c611e67565b5b600061211b85828601611f75565b925050602061212c8582860161208a565b9150509250929050565b60008060006060848603121561214f5761214e611e67565b5b600061215d86828701611f75565b935050602061216e86828701611f75565b925050604061217f8682870161208a565b9150509250925092565b61219281612069565b82525050565b60006020820190506121ad6000830184612189565b92915050565b6121bc81611ef6565b81146121c757600080fd5b50565b6000813590506121d9816121b3565b92915050565b600080604083850312156121f6576121f5611e67565b5b600061220485828601611f75565b9250506020612215858286016121ca565b9150509250929050565b600080fd5b600080fd5b7f4e487b7100000000000000000000000000000000000000000000000000000000600052604160045260246000fd5b61226182611ffd565b810181811067ffffffffffffffff821117156122805761227f612229565b5b80604052505050565b6000612293611e5d565b905061229f8282612258565b919050565b600067ffffffffffffffff8211156122bf576122be612229565b5b6122c882611ffd565b9050602081019050919050565b82818337600083830152505050565b60006122f76122f2846122a4565b612289565b90508281526020810184848401111561231357612312612224565b5b61231e8482856122d5565b509392505050565b600082601f83011261233b5761233a61221f565b5b813561234b8482602086016122e4565b91505092915050565b60008060006060848603121561236d5761236c611e67565b5b600061237b86828701611f75565b935050602061238c86828701611f75565b925050604084013567ffffffffffffffff8111156123ad576123ac611e6c565b5b6123b986828701612326565b9150509250925092565b600067ffffffffffffffff8211156123de576123dd612229565b5b6123e782611ffd565b9050602081019050919050565b6000612407612402846123c3565b612289565b90508281526020810184848401111561242357612422612224565b5b61242e8482856122d5565b509392505050565b600082601f83011261244b5761244a61221f565b5b813561245b8482602086016123f4565b91505092915050565b6000806000806080858703121561247e5761247d611e67565b5b600061248c87828801611f75565b945050602061249d87828801611f75565b93505060406124ae8782880161208a565b925050606085013567ffffffffffffffff8111156124cf576124ce611e6c565b5b6124db87828801612436565b91505092959194509250565b600080604083850312156124fe576124fd611e67565b5b600061250c85828601611f75565b925050602061251d85828601611f75565b9150509250929050565b7f4e487b7100000000000000000000000000000000000000000000000000000000600052602260045260246000fd5b6000600282049050600182168061256e57607f821691505b60208210810361258157612580612527565b5b50919050565b600060608201905061259c60008301866120cc565b6125a96020830185612189565b6125b660408301846120cc565b949350505050565b7f4f776e657220696e646578206f7574206f6620626f756e647300000000000000600082015250565b60006125f4601983611fc2565b91506125ff826125be565b602082019050919050565b60006020820190508181036000830152612623816125e7565b9050919050565b7f4e487b7100000000000000000000000000000000000000000000000000000000600052603260045260246000fd5b7f436572746966696361746520616c72656164792069737375656420666f72207460008201527f68697320776966652e0000000000000000000000000000000000000000000000602082015250565b60006126b5602983611fc2565b91506126c082612659565b604082019050919050565b600060208201905081810360008301526126e4816126a8565b9050919050565b600081905092915050565b600061270182611fb7565b61270b81856126eb565b935061271b818560208601611fd3565b80840191505092915050565b600061273382856126f6565b915061273f82846126f6565b91508190509392505050565b60008190508160005260206000209050919050565b60006020601f8301049050919050565b60008160020a8302905092915050565b6000600883026127b07fffffffffffffffffffffffffffffffffffffffffffffffffffffffffffffffff82612770565b6127ba8683612770565b95508019841693508086168417925050509392505050565b6000819050919050565b60006127f76127f26127ed84612069565b6127d2565b612069565b9050919050565b6000819050919050565b612811836127dc565b61282561281d826127fe565b848454612780565b825550505050565b600090565b61283a61282d565b612845818484612808565b505050565b5b818110156128695761285e600082612832565b60018101905061284b565b5050565b601f8211156128ae5761287f8161274b565b61288884612760565b81016020851015612897578190505b6128ab6128a385612760565b83018261284a565b50505b505050565b60008160020a8304905092915050565b60006128d4600019846008026128b3565b1980831691505092915050565b60006128ed83836128c3565b9150826002028217905092915050565b61290682611fb7565b67ffffffffffffffff81111561291f5761291e612229565b5b6129298254612556565b61293482828561286d565b600060209050601f8311600181146129675760008415612955578287015190505b61295f85826128e1565b8655506129c7565b601f1984166129758661274b565b60005b8281101561299d57848901518255600182019150602085019450602081019050612978565b868310156129ba57848901516129b6601f8916826128c3565b8355505b6001600288020188555050505b505050505050565b600081519050919050565b600082825260208201905092915050565b60006129f6826129cf565b612a0081856129da565b9350612a10818560208601611fd3565b612a1981611ffd565b840191505092915050565b6000608082019050612a3960008301876120cc565b612a4660208301866120cc565b612a536040830185612189565b8181036060830152612a6581846129eb565b905095945050505050565b600081519050612a7f81611e9d565b92915050565b600060208284031215612a9b57612a9a611e67565b5b6000612aa984828501612a70565b91505092915050565b6000604082019050612ac760008301856120cc565b612ad46020830184612189565b9392505050565b7f4e487b7100000000000000000000000000000000000000000000000000000000600052601260045260246000fdfea2646970667358221220bc65924774f49335ac595daf7ef1ae54f346d8759c6c50c94c5c080442eb933464736f6c63430008140033",
  "immutableReferences": {},
  "source": "// SPDX-License-Identifier: MIT\npragma solidity ^0.8.0;\n\nimport \"@openzeppelin/contracts/token/ERC721/extensions/ERC721URIStorage.sol\";\nimport \"@openzeppelin/contracts/token/ERC721/ERC721.sol\";\nimport \"@openzeppelin/contracts/access/Ownable.sol\";\n\ncontract WedLock is ERC721URIStorage, Ownable {\n    uint256 private _nextTokenId;\n\n    // Mapping to track whether a certificate has been issued for a wife's address\n    mapping(address => bool) public certificateIssued;\n\n    // Mapping from owner address to list of owned token IDs\n    mapping(address => uint256[]) private _ownedTokens;\n\n    // Mapping from token ID to index in the owner's list of tokens\n    mapping(uint256 => uint256) private _ownedTokensIndex;\n\n    constructor() ERC721(\"WedLock\", \"WedLockNFT\")Ownable(msg.sender) {}\n\n    /**\n     * @dev Award a marriage certificate NFT to the provided player address.\n     * The wife's address will be used as the unique tokenId.\n     *\n     * @param husbandAddress - The address of the recipient (husband).\n     * @param wifeAddress - The address of the wife (used as the tokenId).\n     * @param tokenURI - The metadata URI for the NFT.\n     */\n    function awardCertificate(\n        address husbandAddress,\n        address wifeAddress,\n        string memory tokenURI\n    ) public onlyOwner returns (uint256) {\n        // Use the wife's address as the unique tokenId\n        uint256 tokenId = uint256(uint160(wifeAddress));\n\n        // Ensure a certificate has not already been issued for this wife's address\n        require(!certificateIssued[wifeAddress], \"Certificate already issued for this wife.\");\n\n        // Mint the NFT and set the metadata URI\n        _mint(husbandAddress, tokenId);\n        _setTokenURI(tokenId, tokenURI);\n\n        // Mark the certificate as issued for this wife address\n        certificateIssued[wifeAddress] = true;\n\n        // Add the token to the list of tokens owned by the player\n        _addTokenToOwnerEnumeration(husbandAddress, tokenId);\n\n        return tokenId;\n    }\n\n    /**\n     * @dev Check if a marriage certificate has been issued for a specific wife's address.\n     *\n     * @param wifeAddress - The address of the wife to check.\n     * @return bool - Returns true if a certificate has been issued, otherwise false.\n     */\n    function isCertificateIssued(address wifeAddress) public view returns (bool) {\n        return certificateIssued[wifeAddress];\n    }\n\n    /**\n     * @dev Returns the token ID owned by `owner` at a given `index` of its token list.\n     * Reverts if `index` is out of bounds.\n     *\n     * @param owner - The address to query.\n     * @param index - The index of the token in the owner's list.\n     * @return uint256 - The token ID at the specified index.\n     */\n    function tokenOfOwnerByIndex(address owner, uint256 index) public view returns (uint256) {\n        require(index < _ownedTokens[owner].length, \"Owner index out of bounds\");\n        return _ownedTokens[owner][index];\n    }\n\n    /**\n     * @dev Private function to add a token to this extension's ownership-tracking data structures.\n     *\n     * @param to - Address representing the new owner of the given token ID.\n     * @param tokenId - ID of the token to be added to the tokens list of the given address.\n     */\n    function _addTokenToOwnerEnumeration(address to, uint256 tokenId) private {\n        _ownedTokensIndex[tokenId] = _ownedTokens[to].length;\n        _ownedTokens[to].push(tokenId);\n    }\n\n    /**\n     * @dev Private function to remove a token from this extension's ownership-tracking data structures.\n     * Note that while the token is not assigned a new owner, the `_ownedTokensIndex` mapping is also cleaned up.\n     *\n     * @param from - Address representing the previous owner of the given token ID.\n     * @param tokenId - ID of the token to be removed from the tokens list of the given address.\n     */\n    function _removeTokenFromOwnerEnumeration(address from, uint256 tokenId) private {\n        uint256 lastTokenIndex = _ownedTokens[from].length - 1;\n        uint256 tokenIndex = _ownedTokensIndex[tokenId];\n\n        // When the token to delete is the last token, the swap is not necessary\n        if (tokenIndex != lastTokenIndex) {\n            uint256 lastTokenId = _ownedTokens[from][lastTokenIndex];\n\n            _ownedTokens[from][tokenIndex] = lastTokenId; // Move the last token to the slot of the to-delete token\n            _ownedTokensIndex[lastTokenId] = tokenIndex; // Update the moved token's index\n        }\n\n        // This also deletes the contents at the last position of the array\n        _ownedTokens[from].pop();\n        delete _ownedTokensIndex[tokenId];\n    }\n\n    \n}\n",
  "sourcePath": "C:\\Users\\USER\\Downloads\\WedLock\\contracts\\WedLock.sol",
  "compiler": {
    "name": "solc",
    "version": "0.8.20+commit.a1b79de6.Emscripten.clang"
  },
  "schemaVersion": "3.4.16",
  "updatedAt": "2024-11-14T12:03:22.604Z",
  "networkType": "ethereum",
  "devdoc": {
    "errors": {
      "ERC721IncorrectOwner(address,uint256,address)": [
        {
          "details": "Indicates an error related to the ownership over a particular token. Used in transfers.",
          "params": {
            "owner": "Address of the current owner of a token.",
            "sender": "Address whose tokens are being transferred.",
            "tokenId": "Identifier number of a token."
          }
        }
      ],
      "ERC721InsufficientApproval(address,uint256)": [
        {
          "details": "Indicates a failure with the `operator`s approval. Used in transfers.",
          "params": {
            "operator": "Address that may be allowed to operate on tokens without being their owner.",
            "tokenId": "Identifier number of a token."
          }
        }
      ],
      "ERC721InvalidApprover(address)": [
        {
          "details": "Indicates a failure with the `approver` of a token to be approved. Used in approvals.",
          "params": {
            "approver": "Address initiating an approval operation."
          }
        }
      ],
      "ERC721InvalidOperator(address)": [
        {
          "details": "Indicates a failure with the `operator` to be approved. Used in approvals.",
          "params": {
            "operator": "Address that may be allowed to operate on tokens without being their owner."
          }
        }
      ],
      "ERC721InvalidOwner(address)": [
        {
          "details": "Indicates that an address can't be an owner. For example, `address(0)` is a forbidden owner in EIP-20. Used in balance queries.",
          "params": {
            "owner": "Address of the current owner of a token."
          }
        }
      ],
      "ERC721InvalidReceiver(address)": [
        {
          "details": "Indicates a failure with the token `receiver`. Used in transfers.",
          "params": {
            "receiver": "Address to which tokens are being transferred."
          }
        }
      ],
      "ERC721InvalidSender(address)": [
        {
          "details": "Indicates a failure with the token `sender`. Used in transfers.",
          "params": {
            "sender": "Address whose tokens are being transferred."
          }
        }
      ],
      "ERC721NonexistentToken(uint256)": [
        {
          "details": "Indicates a `tokenId` whose `owner` is the zero address.",
          "params": {
            "tokenId": "Identifier number of a token."
          }
        }
      ],
      "OwnableInvalidOwner(address)": [
        {
          "details": "The owner is not a valid owner account. (eg. `address(0)`)"
        }
      ],
      "OwnableUnauthorizedAccount(address)": [
        {
          "details": "The caller account is not authorized to perform an operation."
        }
      ]
    },
    "events": {
      "Approval(address,address,uint256)": {
        "details": "Emitted when `owner` enables `approved` to manage the `tokenId` token."
      },
      "ApprovalForAll(address,address,bool)": {
        "details": "Emitted when `owner` enables or disables (`approved`) `operator` to manage all of its assets."
      },
      "BatchMetadataUpdate(uint256,uint256)": {
        "details": "This event emits when the metadata of a range of tokens is changed. So that the third-party platforms such as NFT market could timely update the images and related attributes of the NFTs."
      },
      "MetadataUpdate(uint256)": {
        "details": "This event emits when the metadata of a token is changed. So that the third-party platforms such as NFT market could timely update the images and related attributes of the NFT."
      },
      "Transfer(address,address,uint256)": {
        "details": "Emitted when `tokenId` token is transferred from `from` to `to`."
      }
    },
    "kind": "dev",
    "methods": {
      "approve(address,uint256)": {
        "details": "See {IERC721-approve}."
      },
      "awardCertificate(address,address,string)": {
        "details": "Award a marriage certificate NFT to the provided player address. The wife's address will be used as the unique tokenId.",
        "params": {
          "husbandAddress": "- The address of the recipient (husband).",
          "tokenURI": "- The metadata URI for the NFT.",
          "wifeAddress": "- The address of the wife (used as the tokenId)."
        }
      },
      "balanceOf(address)": {
        "details": "See {IERC721-balanceOf}."
      },
      "getApproved(uint256)": {
        "details": "See {IERC721-getApproved}."
      },
      "isApprovedForAll(address,address)": {
        "details": "See {IERC721-isApprovedForAll}."
      },
      "isCertificateIssued(address)": {
        "details": "Check if a marriage certificate has been issued for a specific wife's address.",
        "params": {
          "wifeAddress": "- The address of the wife to check."
        },
        "returns": {
          "_0": "bool - Returns true if a certificate has been issued, otherwise false."
        }
      },
      "name()": {
        "details": "See {IERC721Metadata-name}."
      },
      "owner()": {
        "details": "Returns the address of the current owner."
      },
      "ownerOf(uint256)": {
        "details": "See {IERC721-ownerOf}."
      },
      "renounceOwnership()": {
        "details": "Leaves the contract without owner. It will not be possible to call `onlyOwner` functions. Can only be called by the current owner. NOTE: Renouncing ownership will leave the contract without an owner, thereby disabling any functionality that is only available to the owner."
      },
      "safeTransferFrom(address,address,uint256)": {
        "details": "See {IERC721-safeTransferFrom}."
      },
      "safeTransferFrom(address,address,uint256,bytes)": {
        "details": "See {IERC721-safeTransferFrom}."
      },
      "setApprovalForAll(address,bool)": {
        "details": "See {IERC721-setApprovalForAll}."
      },
      "supportsInterface(bytes4)": {
        "details": "See {IERC165-supportsInterface}"
      },
      "symbol()": {
        "details": "See {IERC721Metadata-symbol}."
      },
      "tokenOfOwnerByIndex(address,uint256)": {
        "details": "Returns the token ID owned by `owner` at a given `index` of its token list. Reverts if `index` is out of bounds.",
        "params": {
          "index": "- The index of the token in the owner's list.",
          "owner": "- The address to query."
        },
        "returns": {
          "_0": "uint256 - The token ID at the specified index."
        }
      },
      "tokenURI(uint256)": {
        "details": "See {IERC721Metadata-tokenURI}."
      },
      "transferFrom(address,address,uint256)": {
        "details": "See {IERC721-transferFrom}."
      },
      "transferOwnership(address)": {
        "details": "Transfers ownership of the contract to a new account (`newOwner`). Can only be called by the current owner."
      }
    },
    "version": 1
  },
  "userdoc": {
    "kind": "user",
    "methods": {},
    "version": 1
  }
}